:1000000002308A00892A0000FF00030E8301A1004C
:100010000A08A0008A010408A2007708A300780853
:10002000A4007908A5007A08A600831383128C30F7
:100030008400801E1D288C1A2E2822088400230884
:10004000F7002408F8002508F9002608FA0020081F
:100050008A00210E8300FF0E7F0E09008A110A120A
:1000600046281030D800F701FA01D50CD40C031C37
:100070003F285608F7070318FA0A5708FA07FA0C38
:10008000F70CF90CF80CD80B352808008C1E462804
:100090001A08CC01CB004B08C83C031D5428CC08DF
:1000A000031D54280130CD004B08C93C031D5D28B9
:1000B000CC08031D5D280230CD004B08CA3C031D4F
:1000C0006628CC08031D66280330CD004B08CB3CC6
:1000D000031D6F28CC08031D6F280430CD004B088A
:1000E000CC3C031D7828CC08031D78280530CD00B2
:1000F0004B08CD3C031D8128CC08031D8128063008
:10010000CD004B08CE3C031D8A28CC08031D8A284D
:100110000730CD004B08CF3C031D9328CC08031DAE
:1001200093280830CD004B08D03C031D9C28CC08F8
:10013000031D9C280930CD004B08D13C031DA52888
:10014000CC08031DA5280A30CD004B08D23C031D66
:10015000AE28CC08031DAE280B30CD004B08D33C95
:10016000031DB728CC08031DB7280C30CD004B0861
:10017000D43C031DC028CC08031DC0280D30CD0081
:100180004B08D53C031DC928CC08031DC9280E30D7
:10019000CD004B08D63C031DD228CC08031DD22825
:1001A0000F30CD004B08D73C031DDB28CC08031DC6
:1001B000DB281030CD00CC08031D302A4B08C73C8B
:1001C000031C302A4D0BF528D5010A30D4004C0809
:1001D000D7004B08D60031201C307807AB007908D7
:1001E000AC00023003180330AC074D08023C031D7D
:1001F0000A29D5010A30D4004C08D7004B08D60094
:1002000031201C307807AD007908AE0002300318A9
:100210000330AE074D08033C031D1F29D5010A30EA
:10022000D4004C08D7004B08D60031201C3078078A
:10023000AF007908B000023003180330B0074D0852
:10024000043C031D3429D5010A30D4004C08D700E2
:100250004B08D60031201C307807B1007908B20075
:10026000023003180330B2074D08053C031D49292D
:10027000D5010A30D4004C08D7004B08D6003120F5
:100280001C307807B3007908B4000230031803303B
:10029000B4074D08063C031D5E29D5010A30D40081
:1002A0004C08D7004B08D60031201C307807B50029
:1002B0007908B600023003180330B6074D08073C32
:1002C000031D7329D5010A30D4004C08D7004B0810
:1002D000D60031201C307807B7007908B80002300A
:1002E00003180330B8074D08083C031D8829D501C1
:1002F0000A30D4004C08D7004B08D60031201C30FF
:100300007807B9007908BA00023003180330BA0739
:100310004D08093C031D9D29D5010A30D4004C0825
:10032000D7004B08D60031201C307807BB00790875
:10033000BC00023003180330BC074D080A3C031D03
:10034000B229D5010A30D4004C08D7004B08D6009A
:1003500031201C307807BD007908BE000230031838
:100360000330BE074D080B3C031DC729D5010A30D9
:10037000D4004C08D7004B08D60031201C30780739
:10038000BF007908C000023003180330C0074D08D1
:100390000C3C031DDC29D5010A30D4004C08D700E1
:1003A0004B08D60031201C307807C1007908C20004
:1003B000023003180330C2074D080D3C031DF1291C
:1003C000D5010A30D4004C08D7004B08D6003120A4
:1003D0001C307807C3007908C400023003180330CA
:1003E000C4074D080E3C031D062AD5010A30D4006F
:1003F0004C08D7004B08D60031201C307807C500C8
:100400007908C600023003180330C6074D080F3CB8
:10041000031D1B2AD5010A30D4004C08D7004B0815
:10042000D60031201C307807C7007908C800023098
:1004300003180330C8074D08103C031D302AD501AE
:100440000A30D4004C08D7004B08D60031201C30AD
:100450007807C9007908CA00023003180330CA07B8
:10046000831685100230831285068C128A110A12B7
:100470001D28503084008313000803194D2A0130D1
:10048000F800F701F70B422AF80B412A4A30F7002F
:10049000F70B482A4B2A800B3F2A0800F801F90184
:1004A000F701FA015208031D582A51080319722A4C
:1004B0001030D3000310CF0DD00DF70DFA0D5208F8
:1004C0007A02031D652A51087702031C6E2A51081F
:1004D000F702031CFA035208FA020314F80DF90D8F
:1004E000D30B5A2A8A110A122E2B1230D002031C67
:1004F000882A503084008313FC3080050310800C60
:10050000800C00080319882A862A0000800B852A9F
:100510000800193083169900A63098009030831295
:1005200098000230AC008A30AB000230AE008A3056
:10053000AD000230B0008A30AF000230B2008A3025
:10054000B1000230B4008A30B3000230B6008A3005
:10055000B5000230B8008A30B7000230BA008A30E5
:10056000B9000230BC008A30BB000230BE008A30C5
:10057000BD000230C0008A30BF000230C2008A30A5
:10058000C1000230C4008A30C3000230C6008A3085
:10059000C5000230C8008A30C7000230CA008A3065
:1005A000C9000130CD00FF30CE0083161F149F1408
:1005B0001F159F1107309C0083131F3083050912FC
:1005C000B530831290000030F80006389200FF30FA
:1005D000831692001F149F141F159F1183121F1062
:1005E000C0308B00203083168C00003086008312D0
:1005F00086010430CF00FA30D0003922CF0BFB2A1D
:1006000083160510831205140430F700F70B062B30
:10061000092B831605108312051083168514831287
:10062000851C0D2B8E018F018E018316851483127C
:100630008518152B0F08FA000E08F7000F087A022C
:10064000031D1A2B7708A9007A08AA002A08D000EF
:100650002908CF00D2013A30D1004E2A7908A800EB
:100660007808A700A808031D382B2708093C031C9D
:1006700006142C08CF00CF0ACF030319432BFF30F9
:10068000D00075223C2B2B08D00075220610861452
:100690002E08CF00CF0ACF030319522BFF30D00012
:1006A00075224B2B2D08D0007522861006153008B8
:1006B000CF00CF0ACF030319612BFF30D000752282
:1006C0005A2B2F08D0007522061186153208CF004C
:1006D000CF0ACF030319702BFF30D0007522692B8E
:1006E0003108D0007522861106163408CF00CF0AD3
:1006F000CF0303197F2BFF30D0007522782B3308EE
:10070000D000752206124E104E0883168700831201
:1007100007143608CF00CF0ACF030319932BFF30FD
:10072000D00075228C2B3508D00075224E104E0853
:100730008316870083120710CE104E088316870099
:10074000831287143808CF00CF0ACF030319AC2BCC
:10075000FF30D0007522A52B3708D0007522CE10AF
:100760004E0883168700831287104E114E08831699
:100770008700831207153A08CF00CF0ACF03031969
:10078000C52BFF30D0007522BE2B3908D000752252
:100790004E114E088316870083120711CE114E08A2
:1007A00083168700831287153C08CF00CF0ACF033A
:1007B0000319DE2BFF30D0007522D72B3B08D00069
:1007C0007522CE114E0883168700831287114E12B0
:1007D0004E0883168700831207163E08CF00CF0A03
:1007E000CF030319F72BFF30D0007522F02B3D0803
:1007F000D00075224E124E0883168700831207120E
:1008000086164008CF00CF0ACF0303190B2CFF3008
:10081000D0007522042C3F08D000752286120617DE
:100820004208CF00CF0ACF0303191A2CFF30D000A3
:100830007522132C4108D000752206138617440830
:10084000CF00CF0ACF030319292CFF30D000752227
:10085000222C4308D00075228613831608108312B9
:1008600008144608CF00CF0ACF0303193B2CFF30F2
:10087000D0007522342C4508D0007522831608104C
:100880008312081083168810831288144808CF003A
:10089000CF0ACF030319502CFF30D0007522492C0A
:1008A0004708D0007522831688108312881083169B
:1008B0000811831208154A08CF00CF0ACF03031985
:1008C000652CFF30D00075225E2C4908D0007522BF
:1008D00083160811831208116430D0003922002BCE
:0208E0006300B3
:02400E00393F38
:00000001FF
;PIC16F877A
;CRC=F0F4  CREATED="02-May-19 15:59"
